:020000040800F2
:1000000000000120C95C0008CD140008CF140008CE
:10001000D1140008D3140008D51400080000000013
:10002000000000000000000000000000D7140008DD
:10003000D914000800000000DB140008DD140008DB
:10004000195D0008195D0008195D0008195D0008B8
:10005000195D0008195D0008195D0008195D0008A8
:10006000195D0008195D0008195D0008E514000815
:10007000195D0008195D0008195D0008195D000888
:10008000195D0008F5140008195D00080000000063
:10009000000000000000000000000000051500083E
:1000A000195D0008195D0008195D0008195D000858
:1000B000195D0008195D0008195D00081115000898
:1000C00021150008195D0008195D0008195D000878
:1000D000195D000831150008195D000800000000D6
:1000E000195D0008195D0008195D00080000000096
:1000F000000000000000000000000000195D000882
:1001000000000000195D0008195D0008195D000875
:1001100000000000000000000000000000000000DF
:10012000195D0008195D000841150008195D0008F7
:10013000195D000800000000000000000000000041
:10014000000000000000000000000000195D000831
:10015000195D0008195D000851150008195D0008B7
:10016000195D0008195D0008000000000000000093
:10017000000000000000000000000000000000007F
:1001800000000000195D00080000000000000000F1
:04019000195D0008ED
:1001A00010B5054C237833B9044B13B10448AFF3B1
:1001B00000800123237010BDE80100200000000032
:1001C000A0AB000808B5034B1BB103490348AFF3CC
:1001D000008008BD00000000EC010020A0AB00087A
:1001E000034613F8012B002AFBD1181A0138704777
:1001F00001F0FF01102A2BDB10F0070F08D010F8D8
:10020000013B013A8B422DD010F0070F42B3F6D1DB
:10021000F0B441EA012141EA014122F007047FF0F4
:1002200000070023F0E80256083C85EA010586EA4B
:10023000010685FA47F5A3FA87F586FA47F6A5FA87
:1002400087F68EB9EED1F0BC01F0FF0102F0070293
:1002500032B110F8013B013A83EA010313B1F8D13E
:100260000020704701387047002D06BF354603381F
:10027000073815F0010F07D1013015F4807F02BF58
:10028000013015F4C03F0130F0BC0138704700BFA9
:1002900081F0004102E000BF83F0004330B54FEA37
:1002A00041044FEA430594EA050F08BF90EA020FA4
:1002B0001FBF54EA000C55EA020C7FEA645C7FEA37
:1002C000655C00F0E2804FEA5454D4EB5555B8BF5A
:1002D0006D420CDD2C4480EA020281EA030382EACB
:1002E000000083EA010180EA020281EA0303362D5D
:1002F00088BF30BD11F0004F4FEA01314FF4801C30
:100300004CEA113102D0404261EB410113F0004F41
:100310004FEA03334CEA133302D0524263EB4303F8
:1003200094EA050F00F0A780A4F10104D5F1200E96
:100330000DDB02FA0EFC22FA05F2801841F10001F1
:1003400003FA0EF2801843FA05F359410EE0A5F1C5
:1003500020050EF1200E012A03FA0EFC28BF4CF0F6
:10036000020C43FA05F3C01851EBE37101F00045AC
:1003700007D54FF0000EDCF1000C7EEB00006EEBB9
:100380000101B1F5801F1BD3B1F5001F0CD3490843
:100390005FEA30004FEA3C0C04F101044FEA44529A
:1003A00012F5800F80F09A80BCF1004F08BF5FEA21
:1003B000500C50F1000041EB045141EA050130BD01
:1003C0005FEA4C0C404141EB0101013C28BFB1F513
:1003D000801FE9D291F0000F04BF01460020B1FA5E
:1003E00081F308BF2033A3F10B03B3F120020CDA31
:1003F0000C3208DD02F1140CC2F10C0201FA0CF00F
:1004000021FA02F10CE002F11402D8BFC2F1200C73
:1004100001FA02F120FA0CFCDCBF41EA0C01904029
:10042000E41AA2BF01EB0451294330BD6FEA040472
:100430001F3C1CDA0C340EDC04F11404C4F120025D
:1004400020FA04F001FA02F340EA030021FA04F36F
:1004500045EA030130BDC4F10C04C4F1200220FAC6
:1004600002F001FA04F340EA0300294630BD21FA04
:1004700004F0294630BD94F0000F83F4801306BFCA
:1004800081F480110134013D4EE77FEA645C18BFBE
:100490007FEA655C29D094EA050F08BF90EA020F55
:1004A00005D054EA000C04BF1946104630BD91EA4D
:1004B000030F1EBF0021002030BD5FEA545C05D150
:1004C0004000494128BF41F0004130BD14F580048F
:1004D0003CBF01F5801130BD01F0004545F0FE4103
:1004E00041F470014FF0000030BD7FEA645C1ABF38
:1004F000194610467FEA655C1CBF0B46024650EA6F
:10050000013406BF52EA033591EA030F41F400219A
:1005100030BD00BF90F0000F04BF0021704730B520
:100520004FF4806404F132044FF000054FF00001F5
:1005300050E700BF90F0000F04BF0021704730B5B6
:100540004FF4806404F1320410F0004548BF40428B
:100550004FF000013EE700BF42004FEAE2014FEAE0
:1005600031014FEA02701FBF12F07F4393F07F4FBB
:1005700081F06051704732F07F4208BF704793F0BE
:100580007F4F04BF41F40021704730B54FF46074D1
:1005900001F0004521F000411CE700BF50EA0102D4
:1005A00008BF704730B54FF000050AE050EA01027D
:1005B00008BF704730B511F0004502D5404261EBED
:1005C00041014FF4806404F132045FEA915C3FF42E
:1005D000D8AE4FF003025FEADC0C18BF03325FEACB
:1005E000DC0C18BF033202EBDC02C2F1200300FA7C
:1005F00003FC20FA02F001FA03FE40EA0E0021FAA1
:1006000002F11444BDE600BF70B54FF0FF0C4CF48E
:10061000E06C1CEA11541DBF1CEA135594EA0C0F40
:1006200095EA0C0F00F0DEF82C4481EA030621EA7B
:100630004C5123EA4C5350EA013518BF52EA0335B6
:1006400041F4801143F4801338D0A0FB02CE4FF068
:100650000005E1FB02E506F00042E0FB03E54FF098
:100660000006E1FB03569CF0000F18BF4EF0010E90
:10067000A4F1FF04B6F5007F64F5407404D25FEA8C
:100680004E0E6D4146EB060642EAC62141EA55513F
:100690004FEAC52040EA5E504FEACE2EB4F1FD0C81
:1006A00088BFBCF5E06F1ED8BEF1004F08BF5FEAFF
:1006B000500E50F1000041EB045170BD06F00046B1
:1006C00046EA010140EA020081EA0301B4EB5C045E
:1006D000C2BFD4EB0C0541EA045170BD41F4801156
:1006E0004FF0000E013C00F3AB8014F1360FDEBF7B
:1006F000002001F0004170BDC4F10004203C35DA57
:100700000C341BDC04F11404C4F1200500FA05F3D9
:1007100020FA04F001FA05F240EA020001F000427A
:1007200021F0004110EBD37021FA04F642EB0601F0
:100730005EEA430E08BF20EAD37070BDC4F10C041A
:10074000C4F1200500FA04F320FA05F001FA04F2DE
:1007500040EA020001F0004110EBD37041F10001CA
:100760005EEA430E08BF20EAD37070BDC4F12005D5
:1007700000FA05F24EEA020E20FA04F301FA05F23D
:1007800043EA020321FA04F001F0004121FA04F2E5
:1007900020EA020000EBD3705EEA430E08BF20EAB5
:1007A000D37070BD94F0000F0FD101F000464000EF
:1007B00041EB010111F4801F08BF013CF7D041EA71
:1007C000060195F0000F18BF704703F00046520075
:1007D00043EB030313F4801F08BF013DF7D043EA46
:1007E0000603704794EA0C0F0CEA135518BF95EAFC
:1007F0000C0F0CD050EA410618BF52EA4306D1D183
:1008000081EA030101F000414FF0000070BD50EAA1
:10081000410606BF1046194652EA430619D094EA2B
:100820000C0F02D150EA013613D195EA0C0F05D115
:1008300052EA03361CBF104619460AD181EA030169
:1008400001F0004141F0FE4141F470014FF0000021
:1008500070BD41F0FE4141F4780170BD70B54FF0BC
:10086000FF0C4CF4E06C1CEA11541DBF1CEA13553C
:1008700094EA0C0F95EA0C0F00F0A7F8A4EB05041E
:1008800081EA030E52EA03354FEA013100F0888015
:100890004FEA03334FF0805545EA131343EA1263DE
:1008A0004FEA022245EA111545EA10654FEA002693
:1008B0000EF000419D4208BF964244F1FD0404F54C
:1008C000407402D25B084FEA3202B61A65EB0305A8
:1008D0005B084FEA32024FF480104FF4002CB6EB65
:1008E000020E75EB030E22BFB61A754640EA0C00E5
:1008F0005B084FEA3202B6EB020E75EB030E22BF25
:10090000B61A754640EA5C005B084FEA3202B6EB65
:10091000020E75EB030E22BFB61A754640EA9C0024
:100920005B084FEA3202B6EB020E75EB030E22BFF4
:10093000B61A754640EADC0055EA060E18D04FEAB2
:10094000051545EA16754FEA06164FEAC30343EA52
:1009500052734FEAC2025FEA1C1CC0D111F4801F1F
:100960000BD141EA00014FF000004FF0004CB6E718
:1009700011F4801F04BF01430020B4F1FD0C88BFB7
:10098000BCF5E06F3FF6AFAEB5EB030C04BFB6EBC2
:10099000020C5FEA500C50F1000041EB045170BDB5
:1009A0000EF0004E4EEA113114EB5C04C2BFD4EBE2
:1009B0000C0541EA045170BD41F480114FF0000E66
:1009C000013C90E645EA060E8DE60CEA135594EAE2
:1009D0000C0F08BF95EA0C0F3FF43BAF94EA0C0FE5
:1009E0000AD150EA01347FF434AF95EA0C0F7FF45A
:1009F00025AF104619462CE795EA0C0F06D152EAAE
:100A000003353FF4FDAE1046194622E750EA410691
:100A100018BF52EA43067FF4C5AE50EA41047FF4A2
:100A20000DAF52EA43057FF4EBAE12E74FF0FF3C07
:100A300006E000BF4FF0010C02E000BF4FF0010CD8
:100A40004DF804CD4FEA410C7FEA6C5C4FEA430C51
:100A500018BF7FEA6C5C1BD001B050EA410C0CBFA0
:100A600052EA430C91EA030F02BF90EA020F002002
:100A7000704710F1000F91EA030F58BF994208BF69
:100A800090422CBFD8176FEAE37040F00100704726
:100A90004FEA410C7FEA6C5C02D150EA013C07D17D
:100AA0004FEA430C7FEA6C5CD6D152EA033CD3D0C8
:100AB0005DF8040B704700BF8446104662468C46C2
:100AC0001946634600E000BF01B5FFF7B7FF0028F5
:100AD00048BF10F1000F01BD4DF808EDFFF7F4FF1E
:100AE0000CBF012000205DF808FB00BF4DF808EDA9
:100AF000FFF7EAFF34BF012000205DF808FB00BFCC
:100B00004DF808EDFFF7E0FF94BF012000205DF8ED
:100B100008FB00BF4DF808EDFFF7CEFF94BF0120A2
:100B200000205DF808FB00BF4DF808EDFFF7C4FF9B
:100B300034BF012000205DF808FB00BF4FEA410CE4
:100B40007FEA6C5C02D150EA013C0AD14FEA430CC7
:100B50007FEA6C5C02D152EA033C02D14FF0000004
:100B600070474FF0010070474FEA410212F5001242
:100B700015D211D56FF47873B3EB625212D94FEAE4
:100B8000C12343F0004343EA505311F0004F23FACE
:100B900002F018BF404270474FF00000704750EA23
:100BA000013005D111F0004008BF6FF000407047E0
:100BB0004FF00000704700BF4FEA4102B2F1E0433E
:100BC00024BFB3F5001CDCF1FE5C0DD901F0004C34
:100BD0004FEAC0024CEA5070B2F1004F40EB830084
:100BE00008BF20F00100704711F0804F21D113F1B0
:100BF0003872BCBF01F00040704741F480114FEAE9
:100C00005252C2F11802C2F1200C10FA0CF320FA71
:100C100002F018BF40F001004FEAC1234FEAD3238E
:100C200003FA0CFC40EA0C0023FA02F34FEA4303F8
:100C3000CCE77FEA625307D150EA01331EBF4FF081
:100C4000FE4040F44000704701F0004040F0FE409C
:100C500040F40000704700BF53B94AB9002908BFEB
:100C600000281CBF4FF0FF314FF0FF3000F074B987
:100C7000ADF1080C6DE904CE00F006F8DDF804E0F3
:100C8000DDE9022304B070472DE9F047089D0446D2
:100C90008E46002B4DD18A42944669D9B2FA82F22F
:100CA00052B101FA02F3C2F1200120FA01F10CFA6B
:100CB00002FC41EA030E94404FEA1C48210CBEFBA3
:100CC000F8F61FFA8CF708FB16E341EA034306FB2C
:100CD00007F199420AD91CEB030306F1FF3080F0BB
:100CE0001F81994240F21C81023E63445B1AA4B208
:100CF000B3FBF8F008FB103344EA034400FB07F7AA
:100D0000A7420AD91CEB040400F1FF3380F00A81EA
:100D1000A74240F207816444023840EA0640E41BDF
:100D200000261DB1D4400023C5E900433146BDE88B
:100D3000F0878B4209D9002D00F0EF800026C5E92D
:100D4000000130463146BDE8F087B3FA83F6002E45
:100D50004AD18B4202D3824200F2F980841A61EBBD
:100D6000030301209E46002DE0D0C5E9004EDDE7DB
:100D700002B9FFDEB2FA82F2002A40F09280A1EBC3
:100D80000C014FEA1C471FFA8CFE0126200CB1FB18
:100D9000F7F307FB131140EA01410EFB03F0884211
:100DA00008D91CEB010103F1FF3802D2884200F29E
:100DB000CB804346091AA4B2B1FBF7F007FB101130
:100DC00044EA01440EFB00FEA64508D91CEB0404CE
:100DD00000F1FF3102D2A64500F2BB800846A4EB29
:100DE0000E0440EA03409CE7C6F12007B34022FA14
:100DF00007FC4CEA030C20FA07F401FA06F31C4343
:100E0000F9404FEA1C4900FA06F3B1FBF9F8200C4F
:100E10001FFA8CFE09FB181140EA014108FB0EF095
:100E2000884202FA06F20BD91CEB010108F1FF3AE5
:100E300080F08880884240F28580A8F102086144F1
:100E4000091AA4B2B1FBF9F009FB101144EA0141FF
:100E500000FB0EFE8E4508D91CEB010100F1FF34AA
:100E60006CD28E456AD90238614440EA0840A0FB42
:100E70000294A1EB0E01A142C846A64656D353D018
:100E80005DB1B3EB080261EB0E0101FA07F722FA3C
:100E900006F3F1401F43C5E9007100263146BDE865
:100EA000F087C2F12003D8400CFA02FC21FA03F3C8
:100EB000914001434FEA1C471FFA8CFEB3FBF7F049
:100EC00007FB10360B0C43EA064300FB0EF69E426E
:100ED00004FA02F408D91CEB030300F1FF382FD207
:100EE0009E422DD9023863449B1B89B2B3FBF7F6AF
:100EF00007FB163341EA034106FB0EF38B4208D988
:100F00001CEB010106F1FF3816D28B4214D9023EC8
:100F10006144C91A46EA004638E72E46284605E7E6
:100F20000646E3E61846F8E64B45A9D2B9EB0208B7
:100F300064EB0C0E0138A3E74646EAE7204694E747
:100F40004046D1E7D0467BE7023B614432E730467A
:100F500009E76444023842E7704700BF08B5044817
:100F600004F026FB034A13680133136008BD00BF79
:100F700070020020D802002008B504F0FBFB08BD79
:100F800008B5264B26481A68C0F805205A68C0F8EC
:100F900009209A68C0F80D20DA68C0F811201A6993
:100FA000C0F815205A69C0F819209A69C0F81D20A8
:100FB000DA69C0F821201A6AC0F825205A6AC0F8F8
:100FC00029209A6AC0F82D20DA6AC0F831201A6BFD
:100FD000C0F835205A6BC0F839209A6BC0F83D2014
:100FE0001A6CC0F841205A6CC0F845209A6CC0F8C1
:100FF0004920DA6CC0F84D201A6DC0F851205A6DA6
:10100000C0F855209A6DC0F859201A6EC0F85D20BE
:10101000DB6DC0F8613004F0BBFD08BD700200203C
:101020000402002072B6FEE700B595B03022002120
:1010300008A804F0A5FE00230393049305930693E8
:1010400007930193204A116C41F080511164126C96
:1010500002F080520192019A02931C4A136823F411
:10106000404343F400431360136803F44043029386
:10107000029B012308934FF48033099302230E93BC
:101080004FF480020F9219221092A822119212930B
:101090000423139308A802F067F980B90F23039380
:1010A00002210491002305934FF480520692079386
:1010B00003A802F0A7FB20B915B05DF804FBFFF709
:1010C000B1FFFFF7AFFF00BF0038024000700040E3
:1010D00008B503F05FF8FFF7A7FF00F02BF800F06A
:1010E00017F900F051F900F07BF804F045FD0E48C7
:1010F00004F096FA0D4804F009FB04F01BFB04F021
:1011000039FB07E003F06CF8094B1860FFF738FF74
:1011100004F0D2FD03F064F8054B1B68C01AB0F56B
:10112000FA7FEFD2F2E700BFA00400200000002009
:101130006C02002070B58AB00024059406940794D0
:10114000089409940194234B1A6B42F004021A6329
:101150001A6B02F004020192019A02941A6B42F097
:1011600080021A631A6B02F080020292029A0394C0
:101170001A6B42F001021A631A6B02F00102039229
:10118000039A04941A6B42F002021A631B6B03F079
:1011900002030493049B104E22464FF40051304644
:1011A00002F0E6FC4FF400530593012506950794E1
:1011B000089405A9304602F0FBFB202305934FF469
:1011C00088130693079505A9044802F0F1FB0AB0BD
:1011D00070BD00BF00380240000802400004024019
:1011E00008B50A480A4B03604FF4E123436000232B
:1011F0008360C36003610C2242618361C36103F0B9
:10120000EBF800B908BDFFF70DFFFBE79C030020DA
:101210000010014030B589B0002303930493059377
:1012200006930793026803F1804303F588339A42DB
:1012300001D009B030BD04460025019503F5943373
:101240005A6C42F010025A645A6C02F01002019279
:10125000019A02951A6B42F001021A631B6B03F0AC
:1012600001030293029B4FF4C06303930223049390
:10127000032306930723079303A9204802F098FB52
:101280001F48204B03604FF0006343608560C560DA
:101290004FF48063036145618561C5610562456204
:1012A00002F0FAFC18BB164BA3639C631648174B5D
:1012B00003604FF000634360402383600023C360FA
:1012C0004FF48062026143618361C36103624362E0
:1012D00002F0E2FC70B90C4B63639C630022114680
:1012E000252002F0D7FE252002F00CFFA1E7FFF732
:1012F00099FED8E7FFF796FEEDE700BF0000024039
:10130000DC020020406402403C030020B86402403C
:1013100010B582B0002400941A4B1A6B42F40012EC
:101320001A631A6B02F400120092009A01941A6B6D
:1013300042F480021A631B6B03F480030193019B48
:10134000224621460B2002F0A5FE0B2002F0DAFE19
:1013500022462146112002F09DFE112002F0D2FE0D
:10136000224621463A2002F095FE3A2002F0CAFEBB
:1013700022462146462002F08DFE462002F0C2FEA3
:1013800002B010BD0038024008B50B480B4B03609B
:101390000B4B436000238360C3604FF480420261C3
:1013A00043618361C361036200F002FD00B908BDBF
:1013B000FFF738FEFBE700BFA00400200054004008
:1013C000801A060070B588B0002303930493059338
:1013D000069307930268364B9A4201D008B070BD5D
:1013E000044600250195334E336B43F0020333630B
:1013F000336B03F002030193019BC0230393122379
:101400000493032306930423079303A92A4802F0B5
:10141000CFFA0295336C43F400133364336C03F456
:1014200000130293029B2548254B03604FF0007385
:1014300043608560C5604FF48063036145618561E9
:10144000C5610562456202F027FC58BB1B4BA363D4
:101450009C631C481C4B03604FF0007343604023A7
:1014600083600023C3604FF4806202614361836143
:10147000C3610362436202F00FFCB0B9114B6363B6
:101480009C63002211461F2002F004FE1F2002F080
:1014900039FE00221146202002F0FCFD202002F03F
:1014A00031FE9BE7FFF7BEFDD0E7FFF7BBFDE5E7A9
:1014B000005400400038024000040240E0030020D5
:1014C0001060024040040020A0600240FEE7FEE7FA
:1014D000FEE7FEE7FEE770477047704708B502F089
:1014E00073FE08BD08B5024802F0CEFC08BD00BF7F
:1014F000E003002008B5024802F0C6FC08BD00BFAA
:101500004004002008B5202002F038FB08BD000090
:1015100008B5024801F0F6FD08BD00BFA004002098
:1015200008B5024801F0BEFE08BD00BFA0040020BF
:1015300008B5024803F0B0F808BD00BF9C030020C6
:1015400008B5024802F0A0FC08BD00BFDC02002084
:1015500008B5024802F098FC08BD00BF3C0300201B
:1015600082B0002100910B4B5A6C42F480425A64C5
:101570005A6C02F480420092009A01911A6C42F077
:1015800080521A641B6C03F080530193019B02B0DC
:10159000704700BF0038024090F83E30DBB2402B6D
:1015A00010D00369B3F5804F1BD0036D002B39D1E8
:1015B000436CC3F3C813026803F0060343F0F0035F
:1015C00013617047036D2BB9436C026803F0FE038F
:1015D00013617047436C026843F00103DBB213618F
:1015E000704790F83D30DBB2212B0FD0436C02687E
:1015F00043F00103DBB21361436B6BB1DB6B5BB197
:101600000268536843F4006353607047436C026898
:1016100003F0FE031361EFE7836B33B1DB6B002B49
:10162000EED102E0036D012B00D07047436CC3F391
:10163000C813026803F0060343F0F1031361F4E7F3
:10164000436C0268DBB21361436B3BB1DB6B2BB1C4
:101650000268536843F4006353607047836B002B48
:10166000FBD0DB6B002BF3D1F7E710B48BB090F815
:101670003E30DAB2C16A046B90F83D30DBB2222B07
:101680000BD00023099303685A6909929B69099357
:10169000099B0BB05DF8044B7047036D0BB9402AF2
:1016A00017D0036D1BB90369B3F5404F19D0438DB3
:1016B0009BB2002B25D1029303685A6902929A6962
:1016C0000292029A1A6842F400721A6000230365BB
:1016D000DFE7009303685A6900929B690093009BBF
:1016E000D7E70023019303685A6901929A6901922E
:1016F000019A1A6842F480721A60036D013303651F
:10170000C7E7438D9BB2012B25D0438D9BB2022BA3
:101710007BD00268136843F48063136003685A68DF
:1017200012F4006F0ED011F5803F07D0012905D0CB
:10173000082903D0102901D0202903D15A6842F486
:1017400080525A600023089303685A6908929B6983
:101750000893089BBAE711F5803F11D0082934D0CF
:10176000202932D0122C2ED0042940D002293ED07C
:1017700010293CD00268136823F4806313603BE0B7
:101780000268136823F48063136003685A6812F4D4
:10179000006F0CD01A6822F480621A600023039351
:1017A00003685A6903929B690393039B8EE70022A7
:1017B00004925A6904929A690492049A1A6842F44B
:1017C00000721A6082E70129CED00268136823F400
:1017D000806313600023069303685A6906929A692E
:1017E0000692069A1A6842F400721A606EE702685E
:1017F000136843F4806313600023059303685A69F8
:1018000005929B690593059B60E704290ED0022988
:101810000CD010290AD00268136823F48063136087
:101820000268136843F40063136004E002681368FD
:1018300043F48063136003685A6812F4006F0ED09B
:1018400011F5803F07D0012905D0082903D01029C0
:1018500001D0202903D15A6842F480525A600023F3
:10186000079303685A6907929B690793079B2DE7C3
:10187000438D9BB25BB1426A036812781A61436A76
:1018800001334362438D9BB2013B9BB2438570475A
:10189000438D9BB25BB103681A69436A1A70436A4D
:1018A00001334362438D9BB2013B9BB2438570473A
:1018B00082B0002301930E4B1B68DB080D4AA2FB8C
:1018C00003231B0A03EB83030193019B013B019359
:1018D000019B33B103681B6813F4007FF5D100202E
:1018E00004E0036C43F020030364012002B070475E
:1018F0000C00002089B5F81403685A6912F4806F4F
:1019000001D1002070476FF480625A6100230363A5
:10191000202280F83D2080F83E30026C42F0040224
:10192000026480F83C3001207047C36AB3F52A0F87
:1019300004D0C36AB3F12A4F03D070470123C362B6
:1019400070470823C362F8E72DE9F04107460D46CA
:1019500090461E4624E002F043FC069BC01AB042AB
:1019600000D8EEB900233B63202287F83D2087F89A
:101970003E303A6C42F020023A6487F83C30012055
:101980001EE03B689C6925EA040C1FFA8CFCBCFA3B
:101990008CFC4FEA5C1CE04511D1B6F1FF3FDAD177
:1019A000C5F30743012BECD13B685B6925EA030CC7
:1019B0001FFA8CFCBCFA8CFC4FEA5C1CEBE70020A5
:1019C000BDE8F0812DE9F04105460E4617469846E0
:1019D0003DE01A6842F400721A602B686FF480626E
:1019E0005A6100232B63202285F83D2085F83E3084
:1019F0002A6C42F004022A6485F83C30012034E06D
:101A000002F0EEFBA0EB0800B84200D8FFB90023BB
:101A10002B63202285F83D2085F83E302A6C42F069
:101A200020022A6485F83C3001201EE02B689C6966
:101A300026EA0404A4B2003C18BF0124A4B12B6818
:101A40005A6912F4806FC4D1B7F1FF3FD8D1C6F301
:101A50000743012BEAD12B685C6926EA0404A4B28F
:101A6000003C18BF0124E9E70020BDE8F08170B513
:101A700004460D46164623685B6913F0800F1CD19F
:101A80002046FFF739FFD0B9B5F1FF3FF3D002F0A0
:101A9000A7FB801BA84201D8002DECD100232363B3
:101AA000202284F83D2084F83E30226C42F020024F
:101AB000226484F83C30012000E0002070BD012049
:101AC000FCE700002DE9F04385B004460D46914641
:101AD0001F46DDF830800D9E0368196841F480715F
:101AE00019600096434600224FF00111FFF72CFFCA
:101AF00060B9236805F0FE051D613346424626495C
:101B00002046FFF75FFF68B1012008E023681B68EB
:101B100013F4807F02D04FF400732364032005B0D8
:101B2000BDE8F0830023039323685A6903929B69FD
:101B30000393039B324641462046FFF798FF30B996
:101B4000012F0FD123685FFA89F61E61E7E7236C46
:101B5000042B01D00120E2E72268136843F40073EC
:101B60001360F7E723684FEA19221A6132464146AB
:101B70002046FFF77CFF20B923685FFA89F61E61D3
:101B8000CDE7236C042B01D00120C8E7226813683D
:101B900043F400731360F7E7020001002DE9F047FA
:101BA00084B004460D46164699460C9FDDF83480F5
:101BB0000268136843F4806313600368196841F492
:101BC00080711960CDF800803B4600224FF0011172
:101BD000FFF7BAFE70B95FFA85FA236805F0FE05D3
:101BE0001D6143463A4641492046FFF7EBFE68B186
:101BF000012008E023681B6813F4807F02D04FF4B3
:101C000000732364032004B0BDE8F087002303932E
:101C100023685A6903929B690393039B42463946A2
:101C20002046FFF724FF80B9B9F1010F18D12368CE
:101C3000F6B21E61424639462046FFF718FF68B3E8
:101C4000236C042B24D00120DDE7236C042B01D06E
:101C50000120D8E72268136843F400731360F7E7A4
:101C60002368320A1A61424639462046FFF7FFFED2
:101C700018B92368F6B21E61DCE7236C042B01D08F
:101C80000120C0E72268136843F400731360F7E78C
:101C90002268136843F400731360D4E72268136862
:101CA00043F480731360CDF800803B4600224FF070
:101CB00001112046FFF748FE68B922684AF0010387
:101CC000136143463A4609492046FFF77BFE002848
:101CD00099D0012097E723681B6813F4807F02D016
:101CE0004FF40073236403208DE700BF020001005E
:101CF00070B504460D46164623685B6913F0040F61
:101D00001CD12046FFF7F8FDD0B9B5F1FF3FF3D065
:101D100002F066FA801BA84201D8002DECD1002306
:101D20002363202284F83D2084F83E30226C42F068
:101D30002002226484F83C30012000E0002070BDC5
:101D40000120FCE770B505460C4616462B6859691C
:101D500011F0400F29D1596911F0100F15D102F07F
:101D60003FFA801BA04201D8002CEFD100232B6347
:101D7000202285F83D2085F83E302A6C42F0200272
:101D80002A6485F83C30012070BD6FF010025A6162
:101D900000232B63202285F83D2085F83E302A6CF5
:101DA0002A6485F83C300120EEE70020ECE70000D3
:101DB000002800F0CC8070B5044690F83D30002B30
:101DC00077D0242384F83D302268136823F0010380
:101DD00013602268136843F4004313602268136899
:101DE00023F40043136001F0C3FD62685A4B9A422A
:101DF00064D85A4B98428CBF00230123002B40F03B
:101E0000A8805749A1FB00318B0C25686A6822F035
:101E10003F0242EA91426A6021680A6A22F03F0268
:101E200066684D4DAE424FD8013313430B622168B3
:101E3000CA6922F44F4222F0FF026668464B9E4276
:101E40004CD8431E7600B3FBF6F3013340F6FC702A
:101E5000034278D0C3F30B031343CB6121680B68B3
:101E600023F0C003E269206A024313430B60216838
:101E70008B6823F4034323F0FF032269E0680243E5
:101E800013438B602168CB6823F0FF036269A0696C
:101E900002431343CB602268136843F001031360CD
:101EA00000202064202384F83D30206384F83E0025
:101EB00070BD80F83C30FFF785FA82E7294B9842E5
:101EC0008CBF0023012399E74FF4967505FB03F3BC
:101ED000254DA5FB03539B090133A6E7A368BBB9B6
:101EE000451E06EB460CB5FBFCF50135C5F30B05AD
:101EF000B5FA85F56D0945BBC3B9013806EB460354
:101F0000B0FBF3F30133C3F30B0343F40043A3E744
:101F1000451E06EB860C0CEB8C0CB5FBFCF5013575
:101F2000C5F30B05B5FA85F56D09E4E7013806EB55
:101F3000860303EB8303B0FBF3F30133C3F30B031B
:101F400043F4404388E7042386E7012384E7012024
:101F500070470120ACE700BFA08601007F841E000F
:101F600083DE1B43FF083D00D34D62102DE9F04393
:101F700083B004460F46904699460C9E02F030F915
:101F8000054694F83D00C0B2202803D0022003B0DB
:101F9000BDE8F0830095192301224B492046FFF745
:101FA000D3FC002840F0898094F83C30012B00F0ED
:101FB0008680012384F83C3023681A6812F0010FF0
:101FC00003D11A6842F001021A602268136823F4F0
:101FD00000631360212384F83D30402384F83E30B1
:101FE000002323640A9B6362BDF82C306385638DF4
:101FF0002385364BE362019500964B4642463946AF
:102000002046FFF75FFD00285BD1238D002B35D0E4
:102010002A4631462046FFF72AFD20BB626A236824
:1020200012781A61626A531C6362218D013989B288
:102030002185638D9BB2013B9BB263852368586900
:1020400010F0040FE1D00029DFD052781A61636AE2
:1020500001336362238D013B2385638D9BB2013B7A
:102060009BB26385D1E7236C042B01D001208EE75E
:102070002268136843F400731360F7E72A46314679
:102080002046FFF735FE50B1236C042B01D0012010
:102090007DE72268136843F400731360F7E7226852
:1020A000136843F400731360202384F83D30002349
:1020B00084F83E3084F83C3069E7022067E702206C
:1020C00065E7012063E700BF020010000000FFFF8A
:1020D0002DE9F04387B004460F4690469946109E7E
:1020E00002F07EF8054694F83D00C0B2202804D0E6
:1020F0000227384607B0BDE8F08300951923012276
:1021000088492046FFF720FC002840F0438194F8DE
:102110003C30012B00F04081012384F83C302368DF
:102120001A6812F0010F03D11A6842F001021A6016
:102130002268136823F400631360222384F83D307F
:10214000402384F83E30002323640E9B6362BDF875
:102150003C306385638D2385734BE3620195009664
:102160004B46424639462046FFF718FD07460028F1
:1021700040F01481238D5BB9029323685A6902925F
:102180009A690292029A1A6842F400721A6075E023
:10219000012B0AD0022B1AD00023059323685A6919
:1021A00005929B690593059B68E02268136823F4F8
:1021B000806313600023039323685A6903929A692A
:1021C0000392039A1A6842F400721A6056E0226879
:1021D000136823F4806313602268136843F4006378
:1021E00013600023049323685A6904929B69049343
:1021F000049B43E02A4631462046FFF7A3FD002812
:1022000040F0CE8023681A69636A1A70636A0133EA
:102210006362238D013B2385638D9BB2013B9BB29F
:1022200063852BE000953346002240492046FFF7A6
:102230008BFB002840F0B6802268136843F40073DB
:10224000136023681A69636A1A70626A531C6362B6
:10225000238D013B2385638D9BB2013B9BB263853C
:1022600023681B695370636A01336362238D013BEA
:102270002385638D9BB2013B9BB26385238D002B2D
:102280007FD0032B54D8012BB4D0022BCAD0009599
:102290003346002225492046FFF756FB002840F030
:1022A00083802268136823F48063136023681A69AB
:1022B000636A1A70636A01336362238D013B23856D
:1022C000638D9BB2013B9BB2638500953346002230
:1022D00016492046FFF738FB002867D122681368AB
:1022E00043F40073136023681A69636A1A70626AA0
:1022F000531C6362238D013B2385638D9BB2013B9D
:102300009BB2638523681B695370636A0133636200
:10231000238D013B2385638D9BB2013B9BB263857B
:10232000ACE700BF020010000000FFFF0400010046
:102330002A4631462046FFF705FD002838D123689C
:102340001A69636A1A70626A531C6362238D013BC7
:102350002385638D9BB2013B9BB2638523685969DA
:1023600011F0040F8AD01B695370636A01336362F2
:10237000238D013B2385638D9BB2013B9BB263851B
:102380007CE7202384F83D30002384F83E3084F835
:102390003C30AEE60227ACE60227AAE60127A8E613
:1023A0000127A6E60127A4E60127A2E60127A0E669
:1023B00001279EE62DE9F04387B005460E461746F5
:1023C000984601F00DFF0023059395F83D30DBB2F0
:1023D000202B40F0EA808146784B1B68DB08784A66
:1023E000A2FB03231B0A03EB830303EB8303059385
:1023F000059C013C0594059C002C5AD02B689A69D9
:1024000012F0020FF4D195F83C20012A00F0D1809F
:10241000012285F83C201A6812F0010F03D11A68D6
:1024200042F001021A602A68136823F40063136003
:10243000222385F83D30402385F83E3000222A646F
:102440000E9B6B62BDF83C306B856B8D9BB22B8510
:102450005C49E9626E64AF64C5F84C802A65002B64
:1024600000F08580AB6B002B32D0574ADA63AB6B40
:10247000564ADA64AA6B00231364AA6B5364AA6BEE
:102480009364AA6B136529682B8D6A6A1031A86B57
:1024900001F068FC50B3202385F83D30002285F818
:1024A0003E202B6C43F010032B6485F83C20012068
:1024B0007CE000232B63202285F83D2085F83E3008
:1024C0002A6C42F020022A6485F83C3001206DE03D
:1024D000202385F83D30002285F83E202B6C43F008
:1024E00080032B6485F83C2001205FE0CDF8049048
:1024F0002323009343463A4631462846FFF74EFBD6
:10250000D8B92B8D012B2CD02A68536843F4805303
:102510005360002203922B685969039199690391D2
:10252000039985F83C205A6842F480725A602A6800
:10253000536843F40063536035E0A86B01F091FCED
:10254000AA6B0023D36329680A6822F480620A60B8
:102550002B856B852A68136823F001031360012023
:1025600024E02A68136823F480631360D1E7CDF870
:1025700004902323009343463A4631462846FFF70A
:102580000DFBC0B9002104912B685A6904929A6925
:102590000492049A1A6842F400721A60202385F8A3
:1025A0003D3085F83C10002000E0022007B0BDE877
:1025B000F0830220FAE70120F8E700BF0C000020BA
:1025C00089B5F8140000FFFF032B0008BD2A00089E
:1025D00070477047704708B590F83D30DAB2438DC8
:1025E0009BB283B1416A036809781961436A013378
:1025F0004362438D9BB2013B9BB24385438D9BB2AB
:102600000BB9292A00D008BD0268536823F48063FF
:10261000536021230363282380F83D30FFF7DAFF5E
:10262000F1E7704708B590F83D30DAB2438D9BB2C0
:1026300083B103681969436A1970436A01334362BD
:10264000438D9BB2013B9BB24385438D9BB20BB93B
:102650002A2A00D008BD0268536823F480635360BF
:1026600022230363282380F83D30FFF7DAFFF1E7E8
:10267000704700B583B090F83D3003F02803282B55
:102680000CD0002301930268516901919269019273
:10269000019A80F83C3003B05DF804FB026853688F
:1026A00023F48063536011F0040F0BD0002311F06A
:1026B000800F09D18289002180F83C101946FFF76C
:1026C000D7FFE8E70123F2E7028BF4E77047000049
:1026D00008B590F83D30DBB2C26A082A01D0202A42
:1026E00001D1282B06D0212B1ED003686FF4806205
:1026F0005A6108BD1A4BC3620268536823F4E06351
:10270000536003686FF480625A610268136823F4AF
:102710008063136000230363202280F83D2080F84B
:102720003E30FFF7D3FFE4E70D4BC3622123036381
:10273000202380F83D30002380F83E300268536843
:1027400023F4E063536003686FF480625A610268A7
:10275000136823F480631360FFF73CFFC9E700BFF1
:102760000000FFFF704708B5C26A90F83D30DBB249
:10277000212B00D008BD438D9BB263B1426A036830
:1027800012781A61436A01334362438D9BB2013B65
:102790009BB24385EEE7082A04D0202A02D012F526
:1027A000803F19D10268536823F4E06353600268E4
:1027B000136843F40073136000230363202380F83D
:1027C0003D3090F83E30DBB2402B15D0002380F82E
:1027D0003E30FFF7FDFECDE70268536823F4E06367
:1027E000536011230363002380F83E30202380F8D8
:1027F0003D30FFF7EDFEBDE7002380F83E30FFF7E8
:10280000B1FFB7E708B590F83D30026D9AB9C36CD7
:10281000012B08D0836CC3F3072302681361036D97
:102820000133036508BD836C0268DBB21361036D7D
:1028300002330365F6E7DBB2026D012A23D0026D95
:10284000022AEFD1222B26D0428D92B20AB1212B3F
:102850002AD0428D92B2002AE4D1212BE2D1026823
:10286000536823F4E06353600268136843F4007311
:10287000136000230363202280F83D2080F83E305F
:10288000FFF770FFCEE7836C0268DBB21361036D64
:1028900001330365C6E70268136843F4807313606D
:1028A000036D01330365BDE7426A036812781A615C
:1028B000436A01334362438D9BB2013B9BB2438524
:1028C000B0E710B590F83D30DBB290F83E20D2B2C0
:1028D000C46A018D09B9212B04D0212B3BD0402A99
:1028E00037D010BD082C04D0202C02D014F5803F26
:1028F00019D10268536823F4E063536002681368D7
:1029000043F40073136000230363202380F83D30F9
:1029100090F83E30DBB2402B15D0002380F83E30DB
:10292000FFF756FEDDE70268536823F4E063536067
:1029300011230363002380F83E30202380F83D30CC
:10294000FFF746FECDE7002380F83E30FFF70AFF91
:10295000C7E7222BC5D1438D9BB22BB902685368C0
:1029600023F480635360BCE790F83E30DBB2402B29
:102970000CD0426A036812781A61436A01334362D9
:10298000438D9BB2013B9BB24385AAE7FFF73AFF19
:10299000A7E708B5C26A438D9BB2042B14D0438DC0
:1029A0009BB2032B22D0438D9BB2022B39D00368FC
:1029B0001A69436A1A70436A01334362438D9BB2BA
:1029C000013B9BB2438510E00268536823F48063A7
:1029D000536003681A69436A1A70436A0133436299
:1029E000438D9BB2013B9BB2438508BD01684B6898
:1029F00023F480634B60042A06D0022A04D00268C4
:102A0000136823F48063136003681A69436A1A70B9
:102A1000436A01334362438D9BB2013B9BB24385C2
:102A2000E3E7012A0BD0102A09D0042A38D0022A61
:102A300036D00268136843F40073136004E0026840
:102A4000136823F48063136003681A69436A1A7079
:102A5000426A531C4362438D9BB2013B9BB2438548
:102A600003681B695370436A01334362438D9BB211
:102A7000013B9BB243850268536823F44073536063
:102A8000202380F83D3090F83E30DBB2402B0DD053
:102A9000002380F83E3012230363FFF79AFDA4E77A
:102AA0000268136843F480631360CDE7002380F865
:102AB0003E300363FEF752FA97E7704710B5846B18
:102AC000636B0BB10022DA63A36B0BB10022DA63F4
:102AD00001F0CBFA022800D110BD2268136823F45C
:102AE0008063136000236385202284F83D2084F8EE
:102AF0003E30236C43F0100323642046FFF7DDFFD4
:102B0000EAE738B5846B94F83D30DBB294F83E20A8
:102B1000D1B2E56A2068426822F440724260626B7A
:102B20000AB10020D063A26B0AB10020D06303F089
:102B30002102212A41D003F02202222A3BD094F81C
:102B40003E30002B49D0638D9BB2012B58D02268B8
:102B5000536823F44073536015F5803F06D0082D69
:102B600004D0B5F12A4F01D0202D04D1226813687A
:102B700043F4007313602268536823F48053536056
:102B80002268536823F40063536000236385236C39
:102B9000002B3BD1202384F83D3094F83E30DBB24B
:102BA000402B37D0002384F83E3012232363204685
:102BB000FFF70FFD11E02029C1D121684A6822F4F6
:102BC00000624A6000226285292B07D02A2B0ED092
:102BD0002268536843F44073536038BD2123236354
:102BE000282384F83D302046FFF7F4FCF0E7222349
:102BF0002363282384F83D302046FFF712FDE7E7E2
:102C00002268136823F480631360A0E72046FFF76F
:102C100054FFE2E7002384F83E3023632046FEF7AA
:102C20009DF9DAE790F83D30DBB2222B00D07047F7
:102C300010B50446438D9BB2032B15D903681A695E
:102C4000436A1A70436A01334362438D9BB2013B6E
:102C50009BB24385438D9BB2032B0FD1026853680F
:102C600023F48063536009E0C26A022A01D0012B79
:102C700005D92268536823F48063536010BDFEF7C2
:102C800017FE00282ED12268136823F48063136096
:102C90002268536823F4E063536023681A69636A07
:102CA0001A70636A01336362638D9BB2013B9BB20E
:102CB0006385202384F83D3094F83E30DBB2402B0E
:102CC00008D0002384F83E30122323632046FFF708
:102CD00080FCD3E7002384F83E3023632046FEF7D0
:102CE0003DF9CBE72268536823F4E063536023681F
:102CF0001A69636A1A70636A01336362638D9BB2F7
:102D0000013B9BB26385202384F83D30002384F887
:102D10003E302046FFF7D1FEB0E7704700B583B0E4
:102D200000230193806B90F83D20D2B2324B1B6898
:102D3000DB083249A1FB03131B0A03EB8303C3EB3C
:102D4000C3030193019B43B1019B013B01930368C2
:102D50001B6813F4007FF5D103E0036C43F02003FC
:102D60000364436B0BB10021D963836B0BB100216A
:102D7000D96301680B6823F480630B6000234385EB
:102D8000436B0BB100211965836B0BB100211965F1
:102D900001680B6823F001030B6090F83D30DBB253
:102DA000602B0ED002F02802282A14D0202380F8AD
:102DB0003D30002380F83E30FFF77FFE03B05DF822
:102DC00004FB202380F83D30002380F83E3003646C
:102DD000FFF7A3FFF2E70268136843F001031360F3
:102DE0000268136843F4806313600023036328239D
:102DF00080F83D30E0E700BF0C00002089B5F814F2
:102E000010B5044690F83D30DBB290F83E20D2B2C7
:102E1000102A36D0402A34D003F02802282A38D08D
:102E20002268526812F4006F07D1602B05D020236E
:102E300084F83D30002384F83E3000232363236868
:102E40005A6812F4006F48D05A6822F400625A603F
:102E5000626B92F83530DBB2012B20D0444B136506
:102E6000606B00F0FEFF002849D02268136823F051
:102E700001031360202384F83D30606B036D984795
:102E80003DE0222BC8D121680A6822F400620A6062
:102E9000C2E700232363282384F83D30CFE7A36BE8
:102EA000334A1A65A06B00F0DCFF40B323685A690F
:102EB00012F0400F05D01A69636A1A70636A013311
:102EC00063622268136823F001031360202384F8EF
:102ED0003D30A06B036D984711E094F83D20D2B2CD
:102EE000602A1FD05A6912F0400F05D01A69636A30
:102EF0001A70636A013363622046FFF7DEFD236CBC
:102F000013F00F0F04D02268536823F4E06353607A
:102F100094F83D30DBB2226C12F0040F01D0282B64
:102F200018D010BD202284F83D20002222645A6966
:102F300012F0400F05D01A69636A1A70636A013390
:102F400063622268136823F0010313602046FFF7D1
:102F5000E4FED4E7074BE36200232363202284F8D6
:102F60003D2084F83E302046FFF7B0FBD9E700BF94
:102F70001D2D00080000FFFF30B583B0044690F817
:102F80003D50EDB20268536823F4E06353600023C0
:102F9000019303685A6901921A6842F001021A60AB
:102FA000019B0268136823F48063136003685A6806
:102FB00012F4006F38D0222D21D02A2D1FD0426B61
:102FC0001268526892B24285428D92B21AB1026C76
:102FD00042F0040202645A6822F400625A60606B94
:102FE00001F040F801281FD0636B444A1A65606BFA
:102FF00000F037FFC0B1606B036D984714E0A26B1F
:103000001268526892B26285628D92B21AB1226CD5
:1030100042F0040222645A6822F400625A60A06BF3
:1030200001F020F8012842D1638D9BB233B32368AD
:103030005A6912F0040F0AD01A69636A1A70636A37
:1030400001336362638D9BB2013B9BB2638523684E
:103050005A6912F0400F0AD01A69636A1A70636ADB
:1030600001336362638D9BB2013B9BB26385638DC9
:103070009BB21BB1236C43F004032364236C13BB8A
:103080002A2D25D094F83D30DBB2282B29D0236B94
:10309000222B01D0222D19D100232363202284F872
:1030A0003D2084F83E302046FFF7BBFA0EE0A36BCC
:1030B000124A1A65A06B00F0D4FE0028B4D0A06BB1
:1030C000036D9847B0E72046FFF79AFE03B030BD86
:1030D00000232363282384F83D302046FFF7A1FA1C
:1030E000D0E7074BE36200232363202284F83D20CE
:1030F00084F83E302046FFF7E9FAE7E71D2D000887
:103100000000FFFFF8B5044602685568C66A90F8EB
:103110003E30DBB290F83D10C8B2102B13D0402BDC
:1031200011D0236C002B7AD05369002113F0020FC9
:1031300078D015F4007F75D0236C03B191692046D7
:10314000FFF797FAF8BDD2F818C0516911F00107DE
:1031500005D1B6F52A0FF5D0B6F12A4FF2D017B146
:1031600015F4007F29D111F0080F02D015F4007F6B
:103170002AD111F0020F02D015F4007F28D11CF0E3
:10318000040F31D0526812F4006FDBD111F0800FC0
:1031900005D015F4806F02D011F0040F1CD011F08F
:1031A000040FCFD015F4007FCCD0212818D0402BAD
:1031B000C8D12046FFF726FBC4E72046FEF7B5FB43
:1031C0002046FEF7E9F9BDE72046FEF739FAB9E7F0
:1031D0002046FEF74AFAB5E72046FFF772FBB1E753
:1031E0002046FFF7C0FAADE7536813F4006FA9D18A
:1031F00011F0400F05D015F4806F02D011F0040FCC
:1032000009D011F0040F9DD015F4007F9AD020460C
:10321000FFF7BFFB96E72046FFF704FD92E79169B1
:10322000536983E713F0100F02D015F4007F18D113
:1032300021281AD0292818D013F0400F05D015F4F2
:10324000806F02D013F0040F28D013F0040F3FF466
:1032500079AF15F4007F3FF475AF2046FEF718FBF9
:1032600070E72046FFF788FE6CE713F0800F05D06B
:1032700015F4806F02D013F0040F0BD013F0040F7D
:103280003FF460AF15F4007F3FF45CAF2046FEF7DB
:10329000EFFA57E72046FFF79EF953E72046FFF77E
:1032A000C1F94FE7F8B5044603685D695F6890F8B7
:1032B0003E20D2B215F4807F07D017F4807F3CD037
:1032C0006FF480715961012600E0002615F4007F3B
:1032D00008D017F4807F05D046F0020623686FF40B
:1032E0000071596115F4806F19D017F4807F16D0E2
:1032F000638D99B294F83D30DBB2206B202A1ED04A
:1033000023686FF48061596146F00406102A01D0E9
:10331000402A04D12268136843F40073136015F443
:10332000006F08D017F4807F05D046F008062368A8
:103330006FF400625A6186B9F8BD0026C6E700291D
:10334000DED1212B05D0292B03D0282BD8D1212841
:10335000D6D12046FFF7BCF9E1E7236C1E43266473
:103360002046FFF74DFDE7E7002800F0E08170B54B
:1033700082B00446036813F0010F3BD09F4B9B685B
:1033800003F00C03042B2CD09C4B9B6803F00C0324
:10339000082B21D06368B3F5803F4FD0B3F5A02F41
:1033A00052D0964B1A6822F480321A601A6822F4BE
:1033B00080221A606368002B50D000F011FF054690
:1033C0008E4B1B6813F4003F14D100F009FF401B23
:1033D0006428F5D90320B1E1884B5B6813F4800FB2
:1033E000D8D0864B1B6813F4003F03D06368002BD2
:1033F00000F09F81236813F0020F54D07F4B9B682D
:1034000013F00C0F3ED07D4B9B6803F00C03082B90
:1034100033D0E368002B68D0794B01221A6000F0AA
:10342000DFFE0546754B1B6813F0020F54D100F008
:10343000D7FE401B0228F5D903207FE16F4A1368AD
:1034400043F480331360B5E76C4B1A6842F4802272
:103450001A601A6842F480321A60ABE700F0C0FECE
:103460000546664B1B6813F4003FC3D000F0B8FE5E
:10347000401B6428F5D9032060E1604B5B6813F4BE
:10348000800FC6D15D4B1B6813F0020F03D0E368B9
:10349000012B40F05081594A136823F0F803216949
:1034A00043EAC1031360236813F0080F42D0636935
:1034B0006BB3534B0122C3F8802E00F091FE0546FA
:1034C0004E4B5B6F13F0020F34D100F089FE401BAE
:1034D0000228F5D9032031E1484A136823F0F803A4
:1034E000216943EAC1031360DDE7454B00221A60FE
:1034F00000F076FE0546414B1B6813F0020FD2D058
:1035000000F06EFE401B0228F5D9032016E13C4B6B
:103510000022C3F8802E00F063FE0546374B5B6F38
:1035200013F0020F06D000F05BFE401B0228F5D915
:10353000032003E1236813F0040F77D02F4B1B6C9B
:1035400013F0805F33D1002301932C4B1A6C42F0AF
:1035500080521A641B6C03F080530193019B012578
:10356000284B1B6813F4807F23D0A368012B34D031
:10357000052B38D0214B1A6F22F001021A671A6FFF
:1035800022F004021A67A368002B3DD000F028FE49
:1035900006461A4B1B6F13F0020F46D100F020FEB7
:1035A000801B41F288339842F3D90320C6E00025FE
:1035B000D6E7144A136843F48073136000F010FEDA
:1035C0000646104B1B6813F4807FCED100F008FE36
:1035D000801B0228F5D90320B0E0084A136F43F09E
:1035E00001031367CFE7054B1A6F42F004021A6715
:1035F0001A6F42F001021A67C5E700BF00380240A7
:10360000000047420070004000F0EAFD0646524BC1
:103610001B6F13F0020F08D000F0E2FD801B41F297
:1036200088339842F3D9032088E0EDB9A369002BD1
:1036300000F08380484A926802F00C02082A51D0B8
:10364000022B17D0454B00221A6600F0C9FD044634
:10365000414B1B6813F0007F42D000F0C1FD001BFE
:103660000228F5D9032069E03B4A136C23F080530C
:103670001364DBE7394B00221A6600F0B1FD054602
:10368000354B1B6813F0007F06D000F0A9FD401BEE
:103690000228F5D9032051E0E369226A1343626AE4
:1036A00043EA8213A26A5208013A43EA0243E26AF9
:1036B00043EA0263284A5360284B01221A6600F04D
:1036C0008FFD0446244B1B6813F0007F06D100F0E9
:1036D00087FD001B0228F5D903202FE000202DE0F4
:1036E00000202BE0012B2BD01B4B5B6803F48001E7
:1036F000E269914226D103F03F02216A8A4223D136
:10370000616A47F6C0721A40B2EB811F1ED103F402
:103710004031A26A5208013AB1EB024F18D103F0CE
:103720007063E26AB3EB026F14D1002006E001205F
:103730007047012002E0012000E0002002B070BDCF
:103740000120FBE70120F9E70120F7E70120F5E779
:103750000120F3E70120F1E7003802400000474272
:1037600008B5254B9B6803F00C03042B3FD0082BB6
:103770003FD1214B5A6802F03F025B6813F4800F7F
:1037800012D01D4B5968C1F388111C480023A1FBBE
:103790000001FDF761FA184B5B68C3F30143013385
:1037A0005B00B0FBF3F025E0134B5968C1F3881CB4
:1037B0004FEA4C11B1EB0C006EEB0E0E4FEA8E137C
:1037C00043EA90638101091A63EB0E03DB0043EACD
:1037D0005173C90011EB0C0C43F100039902002353
:1037E0004FEA8C2041EA9C51FDF736FAD3E70348B3
:1037F00000E0034808BD00BF0038024040787D016A
:103800000024F400002800F09B8070B50D460446AB
:103810004F4B1B6803F007038B4208D2CBB24C4AD4
:103820001370136803F007038B4240F08B8023680A
:1038300013F0020F17D013F0040F04D0454A936819
:1038400043F4E0539360236813F0080F04D0414A17
:10385000936843F4604393603E4A936823F0F00317
:10386000A1680B439360236813F0010F32D06368A3
:10387000012B21D09A1E012A25D9364A126812F04E
:10388000020F61D033498A6822F0030213438B6030
:1038900000F0A6FC06462F4B9B6803F00C03626801
:1038A000B3EB820F16D000F09BFC801B41F28833F3
:1038B0009842F0D9032042E0264A126812F4003FF1
:1038C000E0D101203BE0234A126812F0007FD9D1F9
:1038D000012034E01E4B1B6803F00703AB4207D9FD
:1038E000EAB21B4B1A701B6803F00703AB422DD1E1
:1038F000236813F0040F06D0164A936823F4E053AC
:10390000E1680B439360236813F0080F07D0114A56
:10391000936823F46043216943EAC1039360FFF78E
:103920001FFF0C4B9B68C3F303130B4AD35CD840B7
:103930000A4B18600A4B186800F006FC002070BDA6
:10394000012070470120FAE70120F8E70120F6E79F
:10395000003C024000380240C0AB00080C000020D0
:1039600008000020014B1868704700BF0C000020C1
:1039700008B5FFF7F7FF044B9B68C3F38223034AA4
:10398000D35CD84008BD00BF00380240D0AB00086F
:1039900008B5FFF7E7FF044B9B68C3F34233034AC4
:1039A000D35CD84008BD00BF00380240D0AB00084F
:1039B00000230F2B00F2D28070B582B060E08568E2
:1039C0005E000324B44025EA0405CC68B4402C43CF
:1039D0008460456825EA02054C68C4F300129A40E9
:1039E0002A4342605AE0DC08083450F8246003F0AF
:1039F000070295000F22AA4026EA020E0A69AA4091
:103A000042EA0E0240F824205CE0042200E000229A
:103A100002FA0EF22A430234514D45F82420514A4D
:103A200094686FEA0C0224EA0C054E6816F4801FB5
:103A300001D04CEA04054B4CA560E46802EA040599
:103A40004E6816F4001F01D04CEA0405454CE560B1
:103A5000646802EA04054E6816F4003F01D04CEA9F
:103A60000405404C6560246822404D6815F4803F91
:103A700001D04CEA04023B4C226001330F2B6BD87F
:103A800001229A400C6804EA020C32EA0404F4D1E0
:103A90004C6804F00304013C012C90D94A6802F000
:103AA0000302032A09D0C4685D000322AA4024EA65
:103AB00002048A68AA402243C2604A6802F00302F4
:103AC000022A90D004684FEA430E032202FA0EF253
:103AD00024EA02044A6802F0030202FA0EF22243C8
:103AE00002604A6812F4403FC7D0002201921E4A89
:103AF000546C44F480445464526C02F48042019249
:103B0000019A9C08A51C164A52F8255003F003029E
:103B10004FEA820E0F2202FA0EF225EA0205134A3C
:103B200090423FF474AF02F5806290420ED002F5ED
:103B3000806290420CD002F5806290420AD002F579
:103B4000806290423FF461AF072261E701225FE7A4
:103B500002225DE703225BE702B070BD704700BF41
:103B600000380140003C01400038024000000240A3
:103B70000AB18161704709048161704708B5054B3E
:103B80005B69034200D108BD024B5861FDF7F4F9AF
:103B9000F9E700BF003C014030B405682C6824F40C
:103BA00080242C60046863608368402B05D0036820
:103BB00099600368DA6030BC704703689A600368F4
:103BC000D960F8E710B40368D9B210390C4AA2FBE7
:103BD000014212090B4CA25CC2655F2909D923F48A
:103BE0007F7323F0030304338365806D5DF8044B1A
:103BF000704723F47F7323F003038365F5E700BF69
:103C0000ABAAAAAAB8AB0008836A826992B9012B51
:103C10000AD0022B02D00BB100207047C36A13F008
:103C2000807F28D100207047C36AB3F1C07F24D0C1
:103C300000207047B2F5005F09D0022B25D9032B75
:103C400025D1C36A13F0807F23D100207047032B56
:103C500003D8DFE803F01404140A00207047C36A95
:103C600013F0807F0DD100207047C36AB3F1C07F8D
:103C700009D00020704701207047012070470120C3
:103C800070470120704701207047012070470020D5
:103C9000704701207047000070B5044600F0A0FA9C
:103CA000002C5BD00546022384F83530002384F8CD
:103CB00034302268136823F00103136023681A6804
:103CC00012F0010F0AD000F08BFA431B052BF5D937
:103CD00020236365032084F8350070BD1A682048EE
:103CE00010406168A2680A43E1680A4321690A43F7
:103CF00061690A43A1690A43E1690A43216A0A43E7
:103D00000243616A04291ED01A602668756925F08D
:103D10000705636A1D43042B07D1A36A1D43E36AA9
:103D20001BB12046FFF770FF90B975612046FFF781
:103D300049FFE26D3F2393408360002060650123CB
:103D400084F83530C9E7E16A206B01430A43DBE7B9
:103D500040236365012084F83500BEE70120BCE7FD
:103D60003F8010F038B50446856D90F83400012886
:103D70002BD0012084F8340094F83500C0B201281B
:103D800004D0002384F83430022038BD022084F8A7
:103D90003500002060652046FFF7FEFEE26D3F2300
:103DA0009340AB602268136843F016031360236CE2
:103DB00023B12268136843F0080313602268136874
:103DC00043F0010313600020DFE70220DDE770B558
:103DD0000446866D00F004FA94F83530DBB2022B0D
:103DE00006D080236365002384F83430012070BD41
:103DF00005462268136823F016031360226853698E
:103E000023F080035361236CE3B12268136823F02D
:103E1000080313602268136823F00103136023680A
:103E20001B6813F0010F11D000F0DAF9431B052BCA
:103E3000F5D920236365032084F83500002384F836
:103E40003430D4E7A36C002BDFD1E3E7E26D3F23EE
:103E50009340B360012384F83530002084F83400A7
:103E6000C5E790F83530DBB2022B03D080234365E1
:103E700001207047052380F835300268136823F06D
:103E80000103136000207047F0B583B0044600239F
:103E90000193724B1D68724BA3FB0535AD0A876D0C
:103EA0003E68C26D08239340334210D003681A68FD
:103EB00012F0040F0BD01A6822F004021A60C26DCF
:103EC00008239340BB60436D43F001034365E26DFB
:103ED00001239340334209D02268526912F0800FC7
:103EE00004D0BB60636D43F002036365E26D04239D
:103EF0009340334209D02268126812F0020F04D0B6
:103F0000BB60636D43F004036365E26D102393406F
:103F1000334224D02268126812F0080F1FD0BB6011
:103F200023681A6812F4802F0DD01B6813F4002F39
:103F300004D1236C9BB12046984710E0A36C73B169
:103F4000204698470BE01A6812F4807F03D11A6864
:103F500022F008021A60236C0BB120469847E26DEC
:103F600020239340334255D02268126812F0100F7C
:103F700050D0BB6094F83530DBB2052B0ED02368EF
:103F80001A6812F4802F33D01B6813F4002F2AD143
:103F9000636C002B3ED0204698473BE022681368B4
:103FA00023F0160313602268536923F080035361E2
:103FB000236CA3B12268136823F008031360E26D39
:103FC0003F239340BB60012384F83530002384F8FD
:103FD0003430236D002B3FD0204698473CE0A36C43
:103FE000002BE7D1EBE7E36BA3B12046984711E044
:103FF0001A6812F4807F09D11A6822F010021A6040
:10400000012384F83530002384F83430E36B0BB19E
:1040100020469847636DFBB1636D13F0010F17D015
:10402000052384F835302268136823F001031360F8
:10403000019B01330193AB4204D823681B6813F042
:10404000010FF5D1012384F83530002384F8343092
:10405000E36C0BB12046984703B0F0BD0C00002084
:10406000B5814E1B90F835007047406D70470000D9
:10407000074AD36823F4E0631B041B0C000200F41E
:10408000E060034343F0BF6343F40033D360704701
:1040900000ED00E000B5194BDB68C3F30223C3F168
:1040A000070CBCF1040F28BF4FF0040C03F1040E01
:1040B000BEF1060F18D9033B4FF0FF3E0EFA0CFC81
:1040C00021EA0C0199400EFA03F322EA0303194393
:1040D00000280BDB0901C9B200F1604000F5614026
:1040E00080F800135DF804FB0023E5E700F00F0003
:1040F0000901C9B2024B1954F4E700BF00ED00E01A
:1041000014ED00E0002807DB00F01F024009012346
:104110009340024A42F82030704700BF00E100E0BF
:104120000138B0F1807F0BD24FF0E0235861054A8F
:10413000F02182F823100020986107221A6170474D
:104140000120704700ED00E010B504460E4B1878D2
:104150004FF47A73B3FBF0F30C4A1068B0FBF3F042
:10416000FFF7DEFF68B90F2C01D901200AE0002219
:1041700021464FF0FF30FFF78DFF054B1C600020FC
:1041800000E0012010BD00BF060000200C00002050
:104190000800002008B50B4B1A6842F400721A6040
:1041A0001A6842F480621A601A6842F480721A60D7
:1041B0000320FFF75DFF0F20FFF7C6FFFDF7D0F9E3
:1041C000002008BD003C0240034A1168034B1B78E5
:1041D0000B441360704700BFF40400200600002069
:1041E000014B1868704700BFF4040020026802F118
:1041F0000C0353E8003F23F0C0030C3242E80031C7
:104200000029F3D1202380F83D307047026802F185
:104210000C0353E8003F23F490730C3242E8003162
:104220000029F3D1026802F1140353E8003F23F0A0
:104230000103143242E800310029F3D1036B012B52
:1042400005D0202380F83E300023036370470268C6
:1042500002F10C0353E8003F23F010030C3242E854
:1042600000310029F3D1ECE790F83D30DBB2212B8F
:1042700001D0022070478368B3F5805F17D0036ACE
:104280005A1C02621A7803685A60C38C9BB2013BC5
:104290009BB2C3844BB90268D36823F08003D36018
:1042A0000268D36843F04003D3600020704703697D
:1042B000002BE4D1036A1B880268C3F30803536030
:1042C000036A02330362E0E738B504460268136903
:1042D00023F44053C1680B4313618368026913439D
:1042E00042691343C2691A430168CB6823F4164339
:1042F00023F00C031343CB600268536923F440732B
:1043000081690B4353610368314A934206D002F539
:104310008062934202D0FFF72BFB01E0FFF738FBEE
:10432000E369B3F5004F29D00021031849411B1858
:1043300041F10001C90041EA5371DB0018186368BC
:104340004FEA83024FEA937341F10001FCF784FCCA
:10435000204DA5FB00325109642303FB11031B010F
:104360003233A5FB03235B0903F0F00202EB0112D9
:1043700003F00F03216813448B6038BD002302183B
:1043800043EB0301121841F10001C90041EA5271E7
:10439000D200101841F10001626892185B41FCF7ED
:1043A0005BFC0C4DA5FB00325109642303FB110398
:1043B000DB003233A5FB03235B095A0002F4F872D9
:1043C00002EB011203F00703216813448B60D4E76A
:1043D000001001401F85EB5158B310B5044690F80A
:1043E0003D300BB3242384F83D302268D36823F496
:1043F0000053D3602046FFF767FF2268136923F458
:10440000904313612268536923F02A0353612268A1
:10441000D36843F40053D36000202064202384F841
:104420003D3084F83E3010BD80F83C30FCF7F2FEA1
:10443000D8E701207047000038B590F83D30DBB276
:10444000202B38D10446002937D0002A37D090F8E5
:104450003C30012B35D0012380F83C30016282844E
:10446000C28400250564212380F83D30436B164843
:10447000D863636B15481864636B1548D864636B25
:104480001D6520681346021D606BFFF76BFC2368F7
:104490006FF040021A6084F83C50226802F1140365
:1044A00053E8003F43F08003143242E80031002912
:1044B000F3D1002000E0022038BD0120FCE70120FC
:1044C000FAE70220F8E700BFD74400083F4500089C
:1044D0004F450008704708B50346806B1B681B6892
:1044E00013F4807F1AD10023C384026802F11403FD
:1044F00053E8003F23F08003143242E800310029E2
:10450000F3D1026802F10C0353E8003F43F040038B
:104510000C3242E800310029F3D108BDFFF7DAFF81
:10452000FBE708B50168CA6822F04002CA60202291
:1045300080F83D20FFF7CEFF002008BD704708B58A
:10454000806BFFF7FBFF08BD70477047704710B5E1
:10455000846B23685A6994F83D30DBB2212B10D06C
:1045600023685A6902F0400294F83E30DBB2222BF5
:1045700011D0236C43F0100323642046FFF7E6FFBD
:1045800010BD02F08002002AEAD00023E384204616
:10459000FFF72CFEE4E7002AEBD00023E38520465A
:1045A000FFF734FEE5E708B5806B0023C385C384BD
:1045B000FFF7CCFF08BD90F83E30DBB2222B67D16D
:1045C0008368B3F5805F4DD0826AB3F5805F04D015
:1045D000002B54D10369002B51D103685B68137021
:1045E000836A01338362C38D9BB2013B9BB2C38557
:1045F000002B4FD100B583B00268D36823F02003AD
:10460000D3600268D36823F48073D360026853696F
:1046100023F001035361202380F83E30036B012B0C
:1046200033D100230363026802F10C0353E8003F17
:1046300023F010030C3242E800310029F3D1036863
:104640001A6812F0100F06D0002201921A68019227
:104650005B680193019B818D01F028FA002003B073
:104660005DF804FB0269002AAED1826A03685B68C8
:10467000C3F308031380836A02338362B3E70368DA
:104680005B6803F07F031370AAE7FFF75DFFE5E7C0
:10469000022070470020704730B583B0044602689E
:1046A0001368D068516913F00F0505D113F0200F7E
:1046B00002D010F0200F19D12DB111F0010119D144
:1046C00010F4907F16D1216B01297DD013F0800F5B
:1046D00003D010F0800F40F0158113F0400F03D08D
:1046E00010F0400F40F0128103B030BD2046FFF7BC
:1046F00062FFF9E713F0010F06D010F4807F03D0BA
:10470000226C42F00102226413F0040F04D019B1AC
:10471000226C42F00202226413F0020F04D019B19D
:10472000226C42F00402226413F0080F07D010F04C
:10473000200F00D119B1226C42F008022264226CD1
:10474000002AD1D013F0200F02D010F0200F29D171
:1047500023685B6903F04003226C12F0080F00D15C
:1047600063B32046FFF752FD23685B6913F0400FE7
:1047700020D0226802F1140353E8003F23F04003E5
:10478000143242E800310029F3D1A36B73B1614ABE
:104790001A65A06BFFF765FB0028A5D0A06B036D21
:1047A0009847A1E72046FFF706FFD1E72046FFF72D
:1047B000CDFE99E72046FFF7C9FE95E72046FFF7B3
:1047C000C5FE002323648FE713F0100F3FF47EAF84
:1047D00010F0100F3FF47AAF002301931368019398
:1047E00053680193019B536913F0400F50D0A26BA3
:1047F00013685B689BB2002B3FF476AFA18D9942A2
:104800007FF672AFE385D369B3F5807F37D0226836
:1048100002F10C0353E8003F23F480730C3242E8AA
:1048200000310029F3D1226802F1140353E8003F5C
:1048300023F00103143242E800310029F3D1226849
:1048400002F1140353E8003F23F04003143242E81E
:1048500000310029F3D1202384F83E300023236364
:10486000226802F10C0353E8003F23F010030C32DE
:1048700042E800310029F3D1A06BFFF7A8FAA18D1F
:10488000E38D9BB2C91A89B2204601F00FF92BE7DC
:10489000A18DE38D9BB2C91A89B2E38D9BB2002B27
:1048A0003FF422AF00293FF41FAF226802F10C034E
:1048B00053E8003F23F490730C3242E800300028A4
:1048C000F3D1226802F1140353E8003F23F00103FF
:1048D000143242E800300028F3D1202384F83E301F
:1048E00000232363226802F10C0353E8003F23F006
:1048F00010030C3242E800300028F3D1204601F0CA
:10490000D5F8F1E62046FFF7AFFCEDE62046FFF7CD
:1049100008FEE9E6A745000808B5806B036B012B8C
:1049200002D0FFF712FE08BD818D490801F0BEF8E4
:10493000F9E708B50346806B1B681B6813F4807F9A
:104940002BD10023C385026802F10C0353E8003F1A
:1049500023F480730C3242E800310029F3D102685D
:1049600002F1140353E8003F23F00103143242E83C
:1049700000310029F3D1026802F1140353E8003F2B
:1049800023F04003143242E800310029F3D1202300
:1049900080F83E30036B012B05D0036B012B0FD049
:1049A000FFF7D2FD08BD026802F10C0353E8003F97
:1049B00023F010030C3242E800310029F3D1ECE778
:1049C000818D01F073F8EDE730B583B004461346EE
:1049D0008162828500250564222280F83E20826B58
:1049E0002048D063A26B20481064A26B1F48D0649B
:1049F000A26B156520680A46011DA06BFFF7B2F98E
:104A0000019523681A6801925B680193019B84F801
:104A10003C5023695BB1226802F10C0353E8003F6C
:104A200043F480730C3242E800310029F3D122684C
:104A300002F1140353E8003F43F00103143242E84B
:104A400000310029F3D1226802F1140353E8003F3A
:104A500043F04003143242E800310029F3D1002032
:104A600003B030BD33490008194900084F4500081C
:104A700090F83E30DBB2202B29D110B582B004462D
:104A800039B342B390F83C30012B27D0012380F892
:104A90003C300363FFF798FFF0B9236B012B01D083
:104AA000012019E00023019323681A6801925B68D2
:104AB0000193019B226802F10C0353E8003F43F08D
:104AC00010030C3242E800310029F3D104E0022047
:104AD0007047012000E0012002B010BD0220FBE77A
:104AE000034AD2F8883043F47003C2F88830704724
:104AF00000ED00E00000000010B5002123E002EB13
:104B000081035800264C14F813C00130235C43EA9B
:104B10000C231BB207EE903AF8EEE77A214B03EB39
:104B20008103D3ED006A87EEA67A01EB4103981862
:104B30001D4B03EB800383ED007A0132D2B2022ACF
:104B4000DDD90131C9B2012901D80022F7E7164C9D
:104B5000D4ED037A9FED157A67EE877AC4ED037A78
:104B6000D4ED047A67EE877AC4ED047AD4ED057A41
:104B700067EE877AC4ED057A17EE900AFBF7ECFC36
:104B800005A3D3E90023FBF789FBFCF715F8606167
:104B900010BD00BFAFF300804850FC1873D7723FC0
:104BA00014050020D8AB0008FC04002039FA8E3C24
:104BB00010EE102A094BA3EB520307EE103ADFED7B
:104BC000087A60EE277A67EE877A67EE877A9FED3C
:104BD000050A30EE670A20EE070A704712141F5FBD
:104BE00012D3363FFF51D83F60EE810AF7EE007ACC
:104BF00037EEC11A21EE000A30EE800A704700003D
:104C0000D0B52DED048B04469FED999AB0EE491A6C
:104C1000D0ED030A90ED090AFFF7E6FFF0EE408AB7
:104C200084ED090AB0EE491AD4ED040A94ED0A0A9B
:104C3000FFF7DAFFB0EE408A84ED0A0AB0EE491AB7
:104C4000D4ED050A94ED0B0AFFF7CEFF84ED0B0AB5
:104C5000D4ED0C6A78EEA66A8649D1ED007A76EE3C
:104C6000E76ADFED855A66EEA56AC4ED0C6A94ED3D
:104C70000D7A38EE077A814AD2ED007A37EE677AFC
:104C800027EE257A84ED0D7AD4ED0E7A70EE277A30
:104C90007B4B93ED005A77EEC57A67EEA57AC4EDAB
:104CA0000E7AC1ED008A82ED008A83ED000A94ED50
:104CB000136ADFED744A26EE246A9FED735A66EE9E
:104CC000856ADFED725A66EEA56A76EE266AC4ED55
:104CD000136AD4ED148A68EEA48A27EE057A27EECB
:104CE000257A78EE878AC4ED148A94ED158A28EE29
:104CF000248A67EE857A67EEA57A38EE278A84EDF6
:104D0000158AF5EEC06AF1EE10FA72DD16EE900A21
:104D1000FBF722FC52A3D3E90023FBF7BDFAFBF714
:104D20004BFFE064F5EEC08AF1EE10FA73DD18EE89
:104D3000900AFBF711FC4AA3D3E90023FBF7ACFA76
:104D4000FBF73AFF2065B5EEC08AF1EE10FA74DD8C
:104D500018EE100AFBF700FC41A3D3E90023FBF790
:104D60009BFAFBF729FF6065A06DFBF7F5FB064694
:104D70000F46E06CFBF7F0FB3BA3D3E90023FBF706
:104D800043FC02460B4630463946FBF787FAFBF7F1
:104D900013FFA065E06DFBF7DFFB06460F46206DB5
:104DA000FBF7DAFB30A3D3E90023FBF72DFC024627
:104DB0000B4630463946FBF771FAFBF7FDFEE0651E
:104DC000206EFBF7C9FB06460F46606DFBF7C4FB80
:104DD00025A3D3E90023FBF717FC02460B46304618
:104DE0003946FBF75BFAFBF7E7FE2066BDEC048B68
:104DF000D0BDF5EEC06AF1EE10FA93D516EE900A2A
:104E0000FBF7AAFB16A3D3E90023FBF747FAFBF74E
:104E1000D3FEE06486E7F5EEC08AF1EE10FA92D593
:104E200018EE900AFBF798FB0DA3D3E90023FBF7DC
:104E300035FAFBF7C1FE206585E7B5EEC08AF1EED5
:104E400010FA91D518EE100AFBF786FB04A3D3E9FC
:104E50000023FBF723FAFBF7AFFE606584E700BF92
:104E60002D431CEBE2361A3F9A9999999999B93FCB
:104E70009A99993E24050020EC51383F28050020DE
:104E80002C050020A4707D3F00D7233CC3F51C41B6
:104E90002DE9F0472DED0E8B824689469046F0EEC7
:104EA00040CAE94B93ED00DAE84B93ED037A2DEE1F
:104EB000479A93ED04BAE64A92ED00CA6BEE0C7A7B
:104EC00039EE679AD3ED057AE24A92ED00AA67EED1
:104ED0008A6A39EE669AB6EE008A29EE089ADE4AA8
:104EE000D2ED00DA67EE2D8A6CEE276A78EEA68A9C
:104EF0006BEE0A6A78EEE68A68EE888A6BEE2D9A87
:104F00006DEE276A79EEE69A67EE0A6A79EEA69A5E
:104F100069EE889A67EEAD7A2DEE0BBA37EE8BBA52
:104F200027EE0C7A3BEE47BA2BEE08BAD3ED00AA77
:104F3000F5EE40AAF1EE10FA0ED1D3ED017AF5EEBE
:104F4000407AF1EE10FA07D1D3ED027AF5EE407A0D
:104F5000F1EE10FA00F0BF806AEEAA7ABB4C94ED35
:104F600001EA2EEE0E0A77EE807A94ED028A28EEA0
:104F7000080A37EE800AFFF71BFE2AEE806A84EDEE
:104F8000006A6EEE005AC4ED015A28EE000A84ED64
:104F9000020A7DEEAD7A7DEE0D3A3CEE0C4A7AEED9
:104FA0000A2AF1EE004A6DEEA40A6DEE241A2CEEE8
:104FB000243AB2EE008A2DEE081A2CEE088A2DEE65
:104FC000AD7A6DEE0D6A2CEE0C5A2AEE0A2A60EECE
:104FD00085BA66EE04AA7BEEAABA60EEA60A7BEE5C
:104FE000A0BA65EEA30A7BEEE0BA61EE82AA66EE95
:104FF000220A7AEEE0AA27EE247A6DEE070A7AEE0C
:10500000A0AA65EEA70A7AEEE0AA7AEEE1AA61EE1E
:10501000260A7AEEA0AA21EE051A7AEE81AA60EE9F
:10502000211A7AEEA1AA2CEE077A66EE277A77EE9D
:10503000277A23EE022A77EE827A65EEA22A77EEAD
:10504000E27A77EEC37A28EE267A77EE877A28EE30
:10505000058A77EE887A20EE038A37EE888A26EE74
:10506000A4EA2AEE0EEA66EE233A3EEE63EA25EE65
:10507000245A2AEE055A3EEE05EA65EE845A3EEEC3
:1050800065EA6BEEAB7A2AEEAA0A77EE807A28EE12
:10509000080A77EE807A2EEE0E0A37EE800AFFF7C6
:1050A00087FD6BEE80BA6AEE80AA28EE008A2EEEAB
:1050B00000EA9FED6A0A6BEE80BA39EE6B9A6AEEEF
:1050C00080AA78EEEA8A28EE008A79EEC89A2EEE57
:1050D00000EA3BEE4EBA29EE2C9A7DEE89DA5E4C60
:1050E000C4ED00DA68EEAC8A7DEE288A564EC6ED35
:1050F000008A69EEAC9A7CEE299A554FC7ED009A6A
:105100002BEE2C8A3AEE088A524D85ED008A6DEE20
:10511000AD7A28EEA80A77EE807A29EEA90A77EE12
:10512000807A28EE080A37EE800AFFF741FD6DEE1F
:1051300080DAC4ED00DA68EE808AC6ED008A69EE96
:10514000809AC7ED009A28EE008A85ED008A6DEE00
:10515000A8DA29EE888A3DEE888A68EEA88AB6EE3B
:10516000009A79EE688A69EEA99A78EEE97A17EEE4
:10517000900AFBF7F1F941EC1A0B18EE100AFBF755
:10518000EBF9B0EE4A1AF0EE6A1A41EC100B03F09C
:105190009BFD51EC100BFBF70FFDCAF80000D6ED9C
:1051A000007A95ED007A67EE877A94ED007AD7ED74
:1051B000006A27EE267A77EEC77A77EEA77A17EE9F
:1051C000900AFBF7C9F941EC100B03F049FD51ECD3
:1051D000100BFBF7F1FCC9F8000097ED007A96ED93
:1051E000008A27EE088AD5ED007AD4ED006A67EED2
:1051F000A66A38EE268A27EE077A39EE477A67EEF6
:10520000A77A77EE677A17EE900AFBF7A5F941ECDB
:10521000190B18EE100AFBF79FF9B0EE491AF0EEE1
:10522000691A41EC100B03F04FFD51EC100BFBF72A
:10523000C3FC07EE900AF1EE677AC8ED007ABDEC88
:105240000E8BBDE8F08700BF3C050020FC04002069
:10525000400500204405002010000020CDCC4C3E2D
:105260002DE9F0472DED108BBAB08246806CFBF72C
:1052700073F941EC190BDAF84400FBF76DF941ECD6
:105280001A0BDAF84000FBF767F941EC180BDAF873
:105290000C00FBF761F941EC1F0BCDE93401DAF8A2
:1052A0001000FBF759F9CDE90A01CDE93601DAF82A
:1052B0001400FBF751F9CDE90C01CDE938014FF0AD
:1052C00000084FF00009CDE92E89CDE93089002290
:1052D000B64BCDE93223B0EE490AF0EE690A03F08D
:1052E0002FFC57EC106BB0EE4A0AF0EE6A0A03F09E
:1052F00027FC55EC104B8DED060B10EE102A2B46BB
:1053000030463946FBF780F941EC1E0BCDE9100120
:10531000B0EE4A0AF0EE6A0A03F05AFC52EC101B97
:105320008DED080B134610EE102ACDE904673046C8
:105330003946FBF769F906460F46B0EE480AF0EE2B
:10534000680A03F045FC54EC103B8DED000B10EEA9
:10535000102A234630463946FBF756F9CDE90E01AF
:10536000B0EE490AF0EE690A03F032FC55EC104B3E
:10537000B0EE480AF0EE680A03F0E2FB53EC102BA3
:105380008DED020B20462946FBF73EF902460B46FF
:10539000DDE90E01FAF780FF41EC1D0BCDE91201AA
:1053A000DDE9022330463946FBF72EF906460F4663
:1053B00022462B46DDE90001FBF726F902460B46A3
:1053C00030463946FAF76AFF41EC1B0BCDE9140170
:1053D00022462B46DDE90601FBF716F941EC1C0BD2
:1053E000CDE9160122462B46DDE90801FBF70CF951
:1053F00004460D4602460B46DDE90001FBF704F9C1
:1054000006460F46DDE90223DDE90401FBF7FCF85F
:1054100002460B4630463946FAF740FF41EC1A0B7C
:10542000CDE9180122462B46DDE90201FBF7ECF835
:1054300004460D46DDE90023DDE90401FBF7E4F84D
:1054400002460B4620462946FAF726FF41EC190B87
:10545000CDE91A01DDE908120E4602F10047CDE957
:105460001C67DDE90023DDE9064520462946FBF7F8
:10547000CBF841EC180BCDE91E01DDE902232046F3
:105480002946FBF7C1F8CDE90001CDE920014246EC
:105490004B4651EC1E0BFBF7B7F804460D4642464F
:1054A0004B4651EC1D0BFBF7AFF802460B4620466E
:1054B0002946FAF7F3FE02460B4651EC1B0BFAF7AE
:1054C000EDFE04460D46CDE9284542464B4651ECDB
:1054D0001C0BFBF799F8CDE9020142464B4651EC13
:1054E0001A0BFBF791F802460B46DDE90201FAF7C9
:1054F000D5FE02460B4651EC190BFAF7CFFE41ECF4
:10550000190BCDE92A0142464B4630463946FBF796
:105510007BF806460F4642464B4651EC180BFBF70C
:1055200073F802460B4630463946FAF7B7FE024694
:105530000B46DDE90001FAF7B1FE80468946CDE968
:105540002C8922462B4651EC1F0BFAF7A5FE064686
:105550000F46CDE9226753EC192BDDE90A01FAF772
:105560009DFE41EC180BCDE9240142464B46DDE996
:105570000C01FAF791FE04460D46CDE9264530466A
:105580003946FBF719FBCAF8180051EC180BFBF76A
:1055900013FBCAF81C0020462946FBF70DFBCAF88E
:1055A00020003AB0BDEC108BBDE8F0870000F03F62
:1055B00010B50446FFF7A0FA9FED140A04F1480263
:1055C00004F1440104F14000FFF762FC2046FFF7BC
:1055D00047FE2046FFF714FB0D4BDA6822601A697C
:1055E00062605A69A2601A68E2605A6822619B6828
:1055F0006361012384F86430236C064A1360616C94
:10560000054A1160054A136010BD00BF6F12833A4E
:10561000FC0400203805002030050020340500205F
:105620002DE9F04387B0044600238DF81730364B40
:1056300018604FF47A730293012301930DF117025E
:1056400000927522D021FCF743FD9DF81730682B9E
:1056500003D0012007B0BDE8F08300258DF8165077
:105660004FF47A770297012601960DF11609CDF8CD
:10567000009033466B22D0212046FCF777FC0723AD
:105680008DF8163002970196CDF800903346192216
:10569000D0212046FCF76AFC029701960DF115080F
:1056A000CDF8008033461C22D0212046FCF710FDA7
:1056B0009DF8153023F018038DF8153002970196E8
:1056C000CDF8008033461C22D0212046FCF74EFC4A
:1056D0008DF8165002970196CDF8009033461B22A4
:1056E000D0212046FCF742FC30238DF8153002977C
:1056F0000196CDF8008033463722D0210248006859
:10570000FCF734FC2846A5E7F804002000B585B076
:105710004FF47A730293062301930090012313221E
:10572000D02103480068FCF721FC05B05DF804FBBC
:10573000F804002000B587B001238DF817304FF42E
:105740007A72029201930DF1170200923822D02151
:1057500007480068FCF70AFC002211461720FEF7F4
:1057600099FC1720FEF7CEFC07B05DF804FB00BFE4
:10577000F804002000B583B00E230193054B00937D
:1057800001233B22D02104480068FCF713FE03B03C
:105790005DF804FB14050020F8040020B0F800C0F8
:1057A00043889C4515D003441B790B704388C3EB99
:1057B0000313094901EBC303136042880132074B0D
:1057C00083FB02135B11642101FB13234380002040
:1057D00070470120704700BFF83400201F85EB514F
:1057E00010B5B0F800C00CF10104104B83FB04E3CA
:1057F0005B114FF0640E0EFB13439BB244889C4236
:1058000012D0038060440271002309E011F803E024
:10581000CCEB0C10064C04EBC00000F803E00133A5
:105820009A42F3DC002010BD0120FCE71F85EB51FC
:10583000F834002010B5028883184FF0010C83F86B
:1058400068C06244114B83FB02435B114FF0640C50
:105850000CFB13231FFA83FC4288624512D09BB2D3
:1058600000EB030E00228EF8682078248EF80440A6
:10587000A0F800C0C3EB0313054800EBC3030B60A3
:10588000104610BD034B0B600120FAE71F85EB515A
:10589000180600204064002010B44388C41894F80F
:1058A0006840FCB100EB030C00248CF868400488CD
:1058B000A34219D09CF804300B704388C3EB031348
:1058C0000A4901EBC303136042880132084B83FB92
:1058D00002135B11642101FB1323438000205DF858
:1058E000044B70470120FAE70120F8E71806002072
:1058F0001F85EB5110B59EB0422300937422002106
:1059000001A800F03DFA134C134B1B782370FEF7EF
:1059100067FCC4F8010006238DF80030214611F819
:10592000013B8DF8013064220DF1020000F01AFAFB
:10593000782269460948FFF753FF034610B1012357
:10594000074A137004490A7801320A7018461EB0DB
:1059500010BD00BF6064002052650020D8630020A5
:105960005864002038B5002303E0204A0021D154B8
:105970000133772BF9DD1E4B1B7833B11C4B002212
:105980001A701C4A138801331380184C02232370A9
:10599000194D2B786370FEF723FCA070C0F307232A
:1059A000E370C0F307432371C0F307606071134ACB
:1059B000538812889B1A6433A371C3F30723E371DE
:1059C0000C4B1A7822725B7863720D4B1A78A272B4
:1059D0005B78E372002323736373782221460948BE
:1059E000FEF72AFD2B7801332B7038BDD4640020DC
:1059F000586400205A6400204D650020D8630020C0
:105A00004E6500209C030020224B93F83D30DBB212
:105A1000202B06D0204A13889BB201339BB21380FF
:105A2000704700B583B0FEF7DBFB1C4B1B68C01A48
:105A300041F2873398420CD9FEF7D2FB174B18601E
:105A4000174A138801331380FFF78CFF03B05DF80A
:105A500004FBFEF7C5FB134B1B68C01A2328F5D9BE
:105A6000FEF7BEFB0F4B1860002301938DF8033047
:105A700001AA0DF103010C48FFF790FE0028E5D1C3
:105A8000074A138801331380782201990148FEF7F1
:105A9000D3FCDBE79C030020506500204805002074
:105AA0004E650020C8640020D86300200268184BAF
:105AB0009A4200D0704710B5782902D0154B1B7858
:105AC0006BB1144B00221A70134C21461348FFF798
:105AD000B1FE782221681248FEF7CAFF10BD3C29AA
